{
  "contractName": "PipelineLeakageDetection",
  "abi": [
    {
      "inputs": [
        {
          "internalType": "uint256",
          "name": "initialPressure",
          "type": "uint256"
        },
        {
          "internalType": "uint256",
          "name": "initialTemperature",
          "type": "uint256"
        }
      ],
      "stateMutability": "nonpayable",
      "type": "constructor"
    },
    {
      "anonymous": false,
      "inputs": [],
      "name": "LeakageDetected",
      "type": "event"
    },
    {
      "anonymous": false,
      "inputs": [
        {
          "indexed": false,
          "internalType": "uint256",
          "name": "psi",
          "type": "uint256"
        }
      ],
      "name": "PressureDropAlert",
      "type": "event"
    },
    {
      "inputs": [],
      "name": "deploymentTime",
      "outputs": [
        {
          "internalType": "uint256",
          "name": "",
          "type": "uint256"
        }
      ],
      "stateMutability": "view",
      "type": "function"
    },
    {
      "inputs": [],
      "name": "deviceId",
      "outputs": [
        {
          "internalType": "uint256",
          "name": "",
          "type": "uint256"
        }
      ],
      "stateMutability": "view",
      "type": "function"
    },
    {
      "inputs": [],
      "name": "owner",
      "outputs": [
        {
          "internalType": "address",
          "name": "",
          "type": "address"
        }
      ],
      "stateMutability": "view",
      "type": "function"
    },
    {
      "inputs": [],
      "name": "pressure",
      "outputs": [
        {
          "internalType": "uint256",
          "name": "",
          "type": "uint256"
        }
      ],
      "stateMutability": "view",
      "type": "function"
    },
    {
      "inputs": [],
      "name": "temperature",
      "outputs": [
        {
          "internalType": "uint256",
          "name": "",
          "type": "uint256"
        }
      ],
      "stateMutability": "view",
      "type": "function"
    },
    {
      "inputs": [
        {
          "internalType": "uint256",
          "name": "newPressure",
          "type": "uint256"
        }
      ],
      "name": "updatePressure",
      "outputs": [],
      "stateMutability": "nonpayable",
      "type": "function"
    },
    {
      "inputs": [],
      "name": "detectLeakage",
      "outputs": [
        {
          "internalType": "bool",
          "name": "",
          "type": "bool"
        }
      ],
      "stateMutability": "view",
      "type": "function"
    }
  ],
  "bytecode": "0x608060405234801561001057600080fd5b5060405161033d38038061033d83398101604081905261002f91610057565b600080546001600160a01b03191633179055426001554360025560039190915560045561007b565b6000806040838503121561006a57600080fd5b505080516020909101519092909150565b6102b38061008a6000396000f3fe608060405234801561001057600080fd5b506004361061007d5760003560e01c8063adccea121161005b578063adccea12146100d2578063b788ebc5146100db578063ecda10f5146100f2578063eef908b0146100fb57600080fd5b806344cf9b31146100825780638da5cb5b1461009e578063ab09891d146100c9575b600080fd5b61008b60025481565b6040519081526020015b60405180910390f35b6000546100b1906001600160a01b031681565b6040516001600160a01b039091168152602001610095565b61008b60035481565b61008b60045481565b6003546103e8116040519015158152602001610095565b61008b60015481565b61010e61010936600461023f565b610110565b005b60038054908290556103e86101258383610258565b1061016a577fc9f495323b81f336105d5612d630fecb350a22754db854afff68005d02253b3660035460405161015d91815260200190565b60405180910390a1610205565b6102bc6003548261017b9190610258565b106101b3577fc9f495323b81f336105d5612d630fecb350a22754db854afff68005d02253b3660035460405161015d91815260200190565b6101f4600354826101c49190610258565b10610205577fc9f495323b81f336105d5612d630fecb350a22754db854afff68005d02253b366003546040516101fc91815260200190565b60405180910390a15b6003546103e8111561023b576040517fd729afe01c2e54528c660623acce03a13f3e61d1b2d2f8141e3a10b4605d73e290600090a15b5050565b60006020828403121561025157600080fd5b5035919050565b60008282101561027857634e487b7160e01b600052601160045260246000fd5b50039056fea26469706673582212208988e1a4ff1e2176ffb7e91b75777577f0aad318c7d63571d7502a81bb97b6f264736f6c634300080b0033",
  "immutableReferences": {},
  "source": "// SPDX-License-Identifier: MIT\npragma solidity ^0.8.11;\n\n\n// Define the Pipeline contract\ncontract PipelineLeakageDetection {\n    address public owner;\n    uint256 public deploymentTime;\n    uint256 public deviceId;\n    uint256 public pressure;\n    uint256 public temperature;\n\n    event PressureDropAlert(uint256 psi);\n    event LeakageDetected();\n\n    constructor(uint256 initialPressure, uint256 initialTemperature) {\n        owner = msg.sender;\n        deploymentTime = block.timestamp;\n        deviceId = block.number;\n        pressure = initialPressure;\n        temperature = initialTemperature;\n    }\n\n    function updatePressure(uint256 newPressure) public {\n        uint256 previousPressure = pressure;\n        pressure = newPressure;\n\n        if (previousPressure - pressure >= 1000) {\n            emit PressureDropAlert(pressure);\n        } else if (previousPressure - pressure >= 700) {\n            emit PressureDropAlert(pressure);\n        } else if (previousPressure - pressure >= 500) {\n            emit PressureDropAlert(pressure);\n        }\n        \n        if (detectLeakage()) {\n            emit LeakageDetected();\n        }\n    }\n\n    function detectLeakage() public view returns (bool) {\n        // If the pressure drops by more than 1000 psi, there is a leakage\n        return pressure < 1000;\n    }\n}\n\n\n\n",
  "sourcePath": "/home/alpha/Projects/Blockchain/LeakageDetection/contracts/LeakageDetection.sol",
  "compiler": {
    "name": "solc",
    "version": "0.8.11+commit.d7f03943.Emscripten.clang"
  },
  "schemaVersion": "3.4.13",
  "updatedAt": "2023-03-15T20:43:12.265Z",
  "devdoc": {
    "kind": "dev",
    "methods": {},
    "version": 1
  },
  "userdoc": {
    "kind": "user",
    "methods": {},
    "version": 1
  }
}